:020000040800F2
:100000000008002041020008FB3200087D30000893
:10001000F93200082F1300084140000800000000DA
:100020000000000000000000000000000936000889
:100030003113000800000000553300080B3600089B
:100040005B0200085B0200085B0200085B0200081C
:100050005B0200085B0200085B0200085B0200080C
:100060005B0200085B0200085B0200085B020008FC
:100070005B0200085B0200085B0200085B020008EC
:100080005B0200085B0200085B0200085B020008DC
:100090005B0200085B0200085B0200085B020008CC
:1000A0005B0200085B0200085B0200085B020008BC
:1000B0005B020008DD3600085B0200085B020008F6
:1000C0005B0200085B0200085B0200085B0200089C
:1000D0005B0200085B020008354000085B02000874
:1000E0005B0200085B0200085B0200085B0200087C
:1000F0005B0200085B0200085B0200085B0200086C
:100100005B0200085B0200085B0200085B0200085B
:100110005B0200085B0200085B0200085B0200084B
:100120005B0200085B0200085B0200085B0200083B
:100130005B0200085B0200085B0200085B0200082B
:100140005B0200085B0200085B0200085B0200081B
:100150005B0200085B0200085B0200085B0200080B
:100160005B0200085B0200085B0200085B020008FB
:100170005B0200085B0200085B0200080000000050
:100180005B0200085B02000800F002F800F049F88A
:100190000AA090E8000C82448344AAF10107DA45E2
:1001A00001D100F03EF8AFF2090EBAE80F0013F0EB
:1001B000010F18BFFB1A43F0010318470447000062
:1001C00024470000103A24BF78C878C1FAD85207F3
:1001D00024BF30C830C144BF04680C6070470000C1
:1001E0000023002400250026103A28BF78C1FBD840
:1001F000520728BF30C148BF0B607047662904F022
:10020000EE82002070471FB504F0DFFA00F052FBC9
:1002100004000020002103F0B1FFE0601FBD10B515
:1002200010BD00F047FC1146FFF7EDFF03F032FF71
:1002300000F065FC03B4FFF7F2FF03BC00F0A8FC7C
:100240000948804709480047FEE7FEE7FEE7FEE76A
:10025000FEE7FEE7FEE7FEE7FEE7FEE704480549A6
:10026000054A064B704700009936000889010008CE
:1002700000020020000800200004002000040020EC
:1002800053EA020C00F069802DE9F04B4FF00006B4
:10029000002B1FBFB3FA83F503FA05F424FA05F621
:1002A0005E4012BF1643B2FA82F502FA05F4C5F1B8
:1002B00020051EBF22FA05FC44EA0C04203556EA4C
:1002C000044C4FEA144418BF641C4FF000084FF070
:1002D0000009904271EB030C39D3002919BFB1FA20
:1002E00081F701FA07F6B0FA80F700FA07F6C7F1CE
:1002F00020071EBF20FA07FC46EA0C062037B6FB93
:10030000F4FCA7EB0507103F07F01F0BCBF120060D
:100310000CFA0BFB2CFA06F644BFB3460026202F3E
:10032000A4BF5E464FF0000B5BEA060C08BF4FF01F
:10033000010B19EB0B09ABFB027C48EB0608C01B59
:1003400006FB02CC0BFB03CC71EB0C01C1E70B46A7
:10035000024641464846BDE8F08B13B54FF0000019
:100360004FF00001AFF30080BDE81C407047000073
:100370000FB41CB5074B06AA7B446946009005984C
:1003800000F07FFA0020694600F08EFA1CBC5DF890
:1003900014FB00002D0500002DE9F0410E46044637
:1003A000002020622046E168884730B3252805D028
:1003B000D4E901219047206A401CF2E7E168204619
:1003C00000278847050018D0A5F14100192802D858
:1003D00020354FF400673246294620462760FFF754
:1003E0000DFF40B1012804D0F61D26F0070608369F
:1003F000D8E7361DD6E72846DAE7206ABDE8F0815F
:100400004FF0000200B5134694469646203922BFAD
:10041000A0E80C50A0E80C50B1F12001BFF4F7AFF8
:10042000090728BFA0E80C5048BF0CC05DF804EBDA
:10043000890028BF40F8042B08BF704748BF20F848
:10044000022B11F0804F18BF00F8012B7047704746
:100450007047704770472DE9FF4F0C461E464FF01E
:10046000FF378BB0D2E90001DDF860800A908A4640
:10047000C1F30A5505B93D46002108464FF000007A
:10048000BAF1000F00F4400005DA00EB80004FF4F1
:10049000400101EA50004FEA9059B9F1010F00DD27
:1004A000B9460A9850EA4A000ED044F61050A5F218
:1004B000FF3545432F14B8F1000F1ED07542291E99
:1004C0001EDDC9F100021CE0B8F1010F4FF0000081
:1004D00001D0302103E0F24305E02154401CB0423A
:1004E000FBDB30460022002121540B99C1F8088023
:1004F000C1E900200FB000F0BCB9BD1B6D1CDEE7E8
:100500004A4600DA694206A800F05EFA06AB93E8B4
:10051000070003AB83E8070050460A9900F03FFB51
:100520008DE80700A0F500501F3800900398002DBB
:100530000ADD42F21F014A460844002303A9039042
:10054000684600F0A8FD09E0A0F500504A461F38B3
:10055000002303A90390684600F0B2FD8DE8070070
:100560000004000C03D04FF0FF30410800E01046BB
:10057000B8F1000F03D00022009215461EE0751E50
:1005800005D400F09BF9303262556D1EF9D5B346A3
:100590000122084302D000227F1C04E0207830288A
:1005A00001D100227F1E002A099784D01DE0112D61
:1005B00007DA00F083F9303262556D1C50EA01020F
:1005C000F5D1084302D00098C8B10EE00021681EA2
:1005D00005E0235C625C63542254401E491C814246
:1005E000F7DBAB46A81B401E0990002004F80B0067
:1005F0000B98099AC0F80880C0E9002B7AE7112609
:100600004FF0000857E72DE9F04F88460446D21D09
:1006100022F0070191B0D1E90001CDE90A0103F010
:1006200010FD02460B98C00F01D02D2007E0206876
:10063000810701D52B2002E0202101EAC000032A16
:10064000099001D0072A05DB03464146204600F009
:100650007BF90BE12078800601D5E06900E00620F7
:10066000B8F1650F814606D0B8F1660F18D0B8F121
:10067000670F70D131E00020B9F1110F009001DB5C
:10068000112301E009F101030AAA01A90CA8FFF74F
:10069000E2FEDDE90C70002609F10105834647E022
:1006A00001204B4600904FF000470AAA01A90CA870
:1006B000FFF7D1FEDDE90DB00C995D46002610B9BB
:1006C00009F101000D18B9EB050003D4C0F1FF36A4
:1006D00009F10105A5EB09002BE0B9F1010F01DAE1
:1006E0004FF001090020B9F1110F0090484601DDDB
:1006F000112300E003460AAA01A90CA8FFF7ABFEEC
:10070000DDE90C704D4600268346207800070AD4A8
:10071000AB4500DA5D4601A8012D04DD411911F851
:10072000011C302907D04F4502DA17F1040F04DA13
:10073000012082460FE06D1EEEE7002F02DCED1B6C
:100740003E4403E0781CA84200DD7D1CB81B00F18C
:10075000010A4FF000472078000703D4AA4501DBC7
:100760004FF0FF3A0021B7F1004F0DF143088DF82B
:10077000431024D002202B23002F01DA7F422D23A7
:100780000A21021EA0F1010000DC5FB197FBF1FC21
:1007900097FBF1F201FB1C7C17460CF1300C08F8BA
:1007A00001CDEEE7A8F1010003702188090501D50C
:1007B000452100E06521A0F1010800F8011C09981D
:1007C0000FA9A1EB0807FF1D00B10120411901EBA2
:1007D000EA70A1693844081A401EA0612078C0065A
:1007E00002D42046AFF30080099828B1D4E9012152
:1007F0009047206A401C20622078C00622D52046FF
:10080000AFF300801EE0002E04DBB34502DD01A83B
:10081000805D00E03020D4E901219047206A401C2F
:100820002062761CAAF101005FEA000A0AD100F0FA
:1008300041F8C0680168405CD4E901219047206A12
:10084000401C2062281EA5F10105DCDC07E0D4E98C
:10085000012118F8010B9047206A401C2062381EC5
:10086000A7F10107F3DC2046AFF30080032011B0AD
:1008700041E630BCBDE8C08F01694A1C02610878BE
:10088000704700B58FB0CDE90131002105910549D0
:100890007944CDE9031011466846FFF77DFD0FB09E
:1008A00000BD0000E5FFFFFF0A6802F8010B0A60C7
:1008B0007047000000487047BC01002030B5B0F11F
:1008C0000A024FEA900E71F100034EEA817EB0EB0E
:1008D0000E0061EB91014FEA101E4EEA017E10EB13
:1008E0000E0041EB11114FEA102E4EEA016E10EB93
:1008F0000E0041EB11214FEA104E4EEA014E10EB73
:100900000E0041EB1141401841F100014FEAD000C7
:1009100040EA41704FEAD10110EB80054FEA8104B3
:1009200044EA907444EB01046D1944EB0404521B37
:10093000A3414FF0000348BF0A3200D530BD401C30
:1009400041F1000130BD00002DE9F0411F46044691
:1009500003260168072A01F4006004DB08B116A52C
:1009600005E016A503E008B115A500E015A521F0E6
:1009700010002060A069C01EA0610FB1401EA061E0
:100980002046AFF300804FB1D4E9012138469047AB
:10099000206A401C2062C01C206206E0206AFAE740
:1009A000D4E9012115F8010B9047761EF8D22046B4
:1009B000AFF30080BDE8F0814E414E006E616E00E5
:1009C000494E4600696E66002DE9F047814616469D
:1009D0008AB0354878440DC88DE80D003248784417
:1009E000801C03AC0DC884E80D0041F69B30084420
:1009F000372190FBF1F290FBF1F5A5F1800501FBA9
:100A000012041B3C02D56442012000E00020DFF804
:100A100098A080460027FA44AAF1BE0A0EE0E0073B
:100A20000AD03246684607EB470101230AEB8101F1
:100A300000F046FB8DE8070064107F1C002CEED10F
:100A4000194F7F44AE3F19E0E80715D007EB0410BB
:100A50000DF1180A90E80E008AE80E00C068F04216
:100A600001D1981908903246012306A903A800F085
:100A700027FB03AB83E807006D10641C002DE3D156
:100A80004FF0010332466946B8F1000F03A802D0C7
:100A900000F001FB01E000F013FBC9E90001C9F817
:100AA00008200AB0BDE8F087D03E0000004870473B
:100AB0009C0100207546FFF7F9FFAE460500694628
:100AC000534620F00700854618B020B5FFF7C6FB57
:100AD000BDE820404FF000064FF000074FF000083F
:100AE0004FF0000B21F00701AC46ACE8C009ACE8C0
:100AF000C009ACE8C009ACE8C0098D46704710B524
:100B00000446AFF300802046BDE81040FFF792BBDB
:100B10004FF0013C50F8042B51F8043B9A4221D18C
:100B2000A2EB0C03934313EACC1317D150F8042B18
:100B300051F8043B9A4215D1A2EB0C03934313EAFC
:100B4000CC130BD150F8042B51F8043B9A4209D135
:100B5000A2EB0C03934313EACC13DBD04FF000005D
:100B6000704700BFD01A01BAB1FA81F101F0180143
:100B700022FA01F0CB40C1F12001DBB2C0B2C01AB1
:100B80002CFA01F3D11A914311EAC311E6D170474F
:100B900001491820ABBEFEE72600020070475FEA5D
:100BA000400C08BF91F0000F4FEA8C234FEAC1229E
:100BB00043EA51514FEA1C5018BF00F5F0404FEA8C
:100BC000300018BF41F000415FEA6C5C00F0298002
:100BD000BCF1FF3F08BF40F080407047130C06BFD8
:100BE00012044FF0100C4FF0000C130E04BF120251
:100BF0000CF1080C130F04BF12010CF1040C930F3D
:100C000004BF92000CF1020CD30F04BF52000CF190
:100C1000010C11464FF00002A0F11F00A0EB0C00E8
:100C2000704711F0004F08BF704731F000413FF4AA
:100C3000D5AF0B0C06BF09044FF0100C4FF0000CA1
:100C40000B0E04BF09020CF1080C0B0F04BF0901C5
:100C50000CF1040C8B0F04BF89000CF1020CCB0FBC
:100C600004BF49000CF1010CCCF12003A0EB0C00F7
:100C700022FA03F302FA0CF241EA030100F1010047
:100C8000704720F07F4C80EA030023F07F47ACEBF5
:100C9000070303F57C5300F0004003F1FF032DE947
:100CA00080494FEA154B09B44FEA144325EA0B4E2D
:100CB00024EA03480FF2042606EB132749083E787E
:100CC0005FEA320203FB0667C7F5000707FB06F67B
:100CD0004FEA54374FEAD64606F1020607FB066C88
:100CE000CCF1005C4FEA1C472CEA074C07FB06F4EA
:100CF0000CFB06F504EB15464FEA961634BF0020B0
:100D00004FF000404FEAD13706FB07FC4FEA1C4C7E
:100D10000CFB0BF7D21B03FB0CF761EB07010CFB81
:100D20000EF7B0EB074072EB17420CFB08F734BF2D
:100D3000A2EB0742B2EB074261EB17414FEA0C44CA
:100D40004FEA910706FB07FC4FEA1C4C0CFB0BF724
:100D5000B0EBC74072EB573203FB0CF734BFA2EB8A
:100D6000C742B2EBC74261EB57310CFB0EF7B0EB59
:100D7000C70072EB57720CFB08F734BFA2EBC70237
:100D8000B2EBC70261EB5771039F4FEA816141EA01
:100D9000921104EBCC044FEAD1374FEA826206FB92
:100DA00007FC42EA90124FEA80604FEA1C4C0CFBB1
:100DB0000BF7D21B03FB0CF761EB07010CFB0EF7E3
:100DC000B0EB074072EB17420CFB08F734BFA2EB05
:100DD0000742B2EB074261EB17414FEA8C554FEAED
:100DE000910704EB9C2406FB07FC4FEA1C4C0CFB10
:100DF0000BF7B0EBC74072EB573203FB0CF734BF75
:100E0000A2EBC742B2EBC74261EB57310CFB0EF7C6
:100E1000B0EBC70072EB57720CFB08F734BFA2EBC4
:100E2000C702B2EBC70261EB577115EB4C254FEAD5
:100E3000816141EA92114FEA82624FEAD13742EA78
:100E4000901206FB07FC44F100044FEA80604FEA71
:100E50001C4C0CFB0BF7D21B03FB0CF761EB0701DF
:100E60000CFB0EF7B0EB074072EB17420CFB08F7D8
:100E700034BFA2EB0742B2EB074261EB174115EB1F
:100E80001C154FEA813141EA92414FEA823242EA2F
:100E900090424FEA80304FEA0C7644F1000448EA71
:100EA00003434EEA0B484FF0000EB2EB080C71EB17
:100EB000030724BF624639464EEB0E0E4FF0000B7F
:100EC0000018524149414BEB0B0BB2EB080C71EB94
:100ED00003077BF1000B24BF624639464EEB0E0E32
:100EE0004FF0000B0018524149414BEB0B0BB2EB9A
:100EF000080C71EB03077BF1000B24BF62463946F7
:100F00004EEB0E0E51EA020718BF46F0010616EB33
:100F10000E7655F1000254F1000103D5BDE88901B8
:100F2000BDE80088BDE88901BDE80048B619524116
:100F300041EB0101A3F10103704780807F7E7D7C3E
:100F40007B7A7978777676757473727171706F6E5B
:100F50006E6D6C6C6B6A6A69686867666665646406
:100F6000636362616160605F5F5E5E5D5D5C5C5B90
:100F70005B5A5A59595858575756565555555454FF
:100F8000535352525251515050504F4F4F4E4E4D5D
:100F90004D4D4C4C4C4B4B4B4A4A4A4949494848A9
:100FA00048474747474646464545454444444443E9
:100FB00043434342424242414141002B9C4630D48C
:100FC00077002BD01CB54FEA370703B44FF0100061
:100FD0004FF01001BAF1000F06D0BCF1000FDCBFDA
:100FE00040F0080040F008014FF000000FBCBDE8E1
:100FF00010400BF1010BBBF1010F08BF5FEA1707AF
:1010000022BF12F1010211F101014FF0004143F141
:10101000000300F0004043EA00007047F9D357088E
:10102000D0E746EA064613F1400F4FEA16461FDDA9
:1010300013F1200FDFBF16430A46002120335B4225
:10104000BED0C3F1200746EA064602FA07F74FEA88
:10105000164646EA0706C3F1200722FA03F201FA10
:1010600007F721FA03F14FF0000342EA0702A7E76E
:1010700046EA020646EA06464FEA164646EA0106F0
:10108000BCBF46EA0646360C4FF000034FF00002A4
:101090004FF0000194E72DE9804C9A46934670B4D6
:1010A00091E8380007C831EA400C48BF34EA430CE5
:1010B00003D5FFF7E6FDFFF780FFF0BCBDE8008C2D
:1010C0002DE9804C9A46934670B491E8380007C8E1
:1010D00010F0804F08BF13F0804F03D100F005F8E7
:1010E000FFF76BFFF0BCBDE8008C20F07F4780EA83
:1010F000030023F07F4C07EB0C03A3F57C5300F0B7
:101100000040A3F1FE0392F0000F00F0B38095F0D1
:10111000000F00F077802DE901494FEA11404FEAB6
:10112000144621EA004800FB06FC24EA064708FBB7
:1011300006F607FB08F800FB07F718EB06484CEB30
:10114000164C4FEA124B18EB07484FEA15464CEB8A
:10115000174022EA0B4E0BFB06FC25EA06470EFB66
:1011600006F607FB0EFE0BFB07F71EEB064E4CEBDD
:10117000164C4FF000061EEB074E4CEB174B18EBCE
:101180000B0840F1000018EB0E0B58EB000840F183
:1011900000008F1A4FF000013CBFC943661B14BF0B
:1011A000B5EB040C00213CBFC943F61B4FEA1744C2
:1011B0004EEA8E0E27EA04454FEA1C4704FB0762FD
:1011C0002CEA074C05FB07F70CFB05F604FB0CFCAF
:1011D00016EB074642EB174216EB0C4642EB1C425D
:1011E0001BEB060658EB0202414146EA9E0601D57A
:1011F000BDE80189B619524141EB0101A3F1010398
:10120000BDE801894FEA14454FEA114724EA054633
:1012100021EA074C05FB07F406FB07F70CFB06F178
:1012200005FB0CFC11EB074144EB17444FEA124756
:1012300011EB0C4144EB1C4422EA074C05FB07F27E
:1012400006FB07F70CFB06F605FB0CFC16EB074646
:1012500042EB174216EB0C4642EB1C456A1854F160
:10126000000148BF7047B619524141EB0101A3F19B
:101270000103704795F0000F37D04FEA11424FEA53
:10128000144721EA024624EA074C02FB07F106FB59
:1012900007F70CFB06F402FB0CFC14EB074441EBD4
:1012A00017414FEA154714EB0C4441EB1C4125EA6A
:1012B000074C02FB07F506FB07F70CFB06F602FBE3
:1012C0000CFC16EB074645EB174516EB0C4645EBB9
:1012D0001C42121951F1000148BF7047B619524122
:1012E00041EB0101A3F1010370474FEA14454FEAB6
:1012F000114724EA054621EA074C05FB07F106FBE6
:1013000007F70CFB06F24FF0000605FB0CFC12EB96
:10131000074241EB174112EB0C4251EB1C4148BF15
:101320007047921841EB0101A3F101037047FEE7FA
:10133000704772B6FEE7000004480168486A044A34
:1013400000B2106000224A6270470000D000002006
:101350000000002010B590F825100024022903D0C9
:101360000421C16301241AE001680A6822F00E0218
:101370000A6001680A6822F001020A6090F84410CD
:10138000036C01F01C02012101FA02F25A6080F89C
:101390002510002180F82410816B01B18847204678
:1013A00010BD000070B5044600F04EF90546601C03
:1013B00002D004480078044400F046F9401BA042E3
:1013C000FAD370BD280000202DE9F04FDFF83492E9
:1013D000002309F1040A012403250AF1040B87B054
:1013E0000F270BF1040E04E104FA03F632407CD01F
:1013F000D1F804C0BCF1010F08D0BCF1020F05D038
:10140000BCF1110F02D0BCF1120F29D1D0F808C0E5
:10141000CDF800C04FEA430C05FA0CF8CDF80CC02B
:10142000DDF800C02CEA080CCDF800C0D1F80C8023
:10143000DDF80CC008FA0CF8DDF800C048EA0C082A
:10144000C0F80880D0F8048091F804C028EA0608A3
:10145000CCF3001C0CFA03FC4CEA080CC0F804C0E6
:10146000D1F804806FEA080C5FEA8C7C09D1D0F8CF
:101470002CC02CEA060CC8F3C0069E4046EA0C06B7
:10148000C662D0F80CC04FEA430805FA08F62CEA09
:10149000060CCDF8148002968E6806FA08F646EA25
:1014A0000C06C6604E68022E01D0122E15D1DE0841
:1014B00000EB86060396366A4FEA437C4FEADC6807
:1014C00007FA08FC26EA0C06D1F810C00CFA08FC52
:1014D0004CEA060C039EC6F820C00668DDF808C07A
:1014E00026EA0C0691F804C000E081E0DDF81480E3
:1014F0000CF0030C0CFA08FC4CEA060CC0F800C017
:101500004E68F60074D5404ED6F860C04CF0010C21
:10151000C6F860C0366E23F0030C06F00106009694
:101520003A4E66440296D6F808C09E074FEA1678EF
:1015300007FA08F62CEA060CB0F1904F04D0344EAE
:10154000B04203D101261BE0002619E0314EB04223
:1015500001D1022614E0304EB04201D103260FE043
:101560002E4EB04201D104260AE02D4EB04201D1E8
:10157000052605E02B4EB04201D1062600E00726E5
:1015800006FA08F646EA0C06DDF808C0CCF8086052
:10159000D9F80060CC46D1F8048096435FEAC83899
:1015A00000D51643CCF80060DAF80060D446D1F8D4
:1015B000048096435FEA883800D51643CCF8006073
:1015C000DBF80060DC46D1F8048096435FEAC82867
:1015D00000D51643CCF80060DEF80060F446D1F880
:1015E000048096435FEA882800D51643CCF8006053
:1015F0005B1C0A6832FA03F67FF4F6AE07B000F01F
:1016000013B8000000040140001002400000014037
:101610000004004800080048000C00480010004882
:10162000001400480018004830BCBDE8C08F426973
:1016300021EA02030A4043EA0241816170470AB18C
:10164000816170478162704701488068704700007F
:1016500028000020024881680278114481607047A8
:1016600028000020094810B50168002441F4807169
:101670000160032000F072F8002000F009F808B1C2
:10168000012401E000F026F8204610BD00200240B1
:1016900070B50E4E05460024307898B14FF47A713B
:1016A000B1FBF0F00A490968B1FBF0F000F016FE5A
:1016B00040B9102D06D200222946501E00F02EF807
:1016C000756000E00124204670BD00002800002065
:1016D00034000020094808B5016E41F0010101669F
:1016E000016E01F001010091816D41F08051816531
:1016F000806D00F08050009008BD00000010024096
:10170000002809DB00F01F02012191404009800000
:1017100000F1E020C0F8001170470000F0B40E4B5B
:101720001B680C46C3F30223C3F10705042D00D93F
:101730000425191D072901D2002300E0DB1E012624
:1017400006FA05F1491E214099409E40761E16403A
:101750003143F0BC02F08DBC0CED00E0064900F016
:10176000070208684FF6FF03184040EA0220034AC8
:1017700010430860704700000CED00E00000FA051F
:101780001649B0F5007F0868C0F3412009D002284F
:1017900005D0086820F4C06040F480600860002034
:1017A00070470128FBD0086820F4C06040F4007046
:1017B00008600B483222006850430A4AB0FBF2F03E
:1017C000401C00E0401E4A69520501D50028F9D1AD
:1017D00048694005E3D503207047000000700040D1
:1017E0003400002040420F000248006800F4C0604E
:1017F00070470000007000402DE9F84F04460027B4
:101800000088E54D3E46010504F1200B1DD5606EB4
:1018100078B1B0F5800F11D0B0F5000F04D0B0F55D
:10182000400F22D001270FE0E86840F48030E860E4
:101830001BE00021201D01F08FFD03E00021584630
:1018400001F020FE070010D03E462088C00426D5B7
:10185000A06EC0B1B0F1807F1AD0B0F1007F0DD082
:10186000B0F1407F19D0012718E0D5F88800616EEB
:1018700020F440000843C5F88800E6E7E86840F433
:101880008030E86009E00021201D01F065FD03E0E3
:101890000021584601F0F6FD0746F7B13E462068A4
:1018A00080033AD5A86D4FF00008C00009D4A86D98
:1018B00040F08050A865A86D4FF0010800F08050FE
:1018C0000090DFF8D8A2DAF8001041F48071CAF86D
:1018D0000010FFF7B9FE814610E0D5F88800A16E30
:1018E00020F040700843C5F88800D8E7FFF7ACFE49
:1018F000A0EB0900022801D9032705E0DAF800006F
:10190000C005F3D5002F7CD04FEA0706B8F1000FD1
:1019100003D0A86D20F08050A8652078C00707D0BC
:10192000D5F88800A16B20F003000843C5F88800B3
:101930002078800707D5D5F88800E16B20F00C00EF
:101940000843C5F888002078400707D5D5F88800F7
:10195000216C20F030000843C5F88800207800078B
:1019600007D5D5F88800616C20F0C0000843C5F8A1
:1019700088002078C00607D5D5F88800A16C20F42F
:1019800040700843C5F888002078800607D5D5F850
:101990008800E16C20F440600843C5F88800208886
:1019A000800507D5D5F88800E16D20F44020084374
:1019B000C5F888002088400507D5D5F88800216E35
:1019C00020F440100843C5F888002078400607D569
:1019D000D5F88800216D20F440500843C5F88800F0
:1019E0002078000607D5D5F88800616D20F44040C6
:1019F0000843C5F888002088C00509D5D5F88800B7
:101A000000E01CE0A16D20F440300843C5F88800D8
:101A100020884FF0006780044FF080684FD5D5F8DC
:101A20008800E16E20F040600843C5F88800E06E51
:101A3000B8423CD1E86840F48010E8603FE0D5F857
:101A4000900010F4407015D0D4F88410814211D069
:101A5000D5F89000D5F8901020F4407041F4803112
:101A6000C5F89010D5F8901021F48031C5F8901089
:101A7000C5F89000C00710D0FFF7E6FD074641F219
:101A8000883906E0FFF7E0FDC11B494501D903266F
:101A90003CE7D5F890008007F4D5D5F89000D4F84D
:101AA000841020F440700843C5F890002EE74045AC
:101AB00005D10121201D01F04FFC00B10646206830
:101AC000000317D5D5F88800216F20F04060084347
:101AD000C5F88800206FB84204D1E86840F480104F
:101AE000E86007E0404505D10121201D01F034FCEC
:101AF00000B106462068400317D5D5F88800616F0D
:101B000020F040600843C5F88800606FB84204D1F7
:101B1000E86840F48010E86007E0404505D1012105
:101B2000201D01F019FC00B10646208840041AD59A
:101B3000D5F88800A16F20F040500843C5F8880010
:101B4000A06FB0F1805F03D0B0F1005F05D00AE074
:101B50000221201D01F000FC03E00221584601F0A3
:101B600091FC00B106462088000407D5D5F888000E
:101B7000E16F20F080400843C5F888002068C0036A
:101B800007D555F8880FD4F8801020F0004008439E
:101B90002860304600F004B8001002400070004099
:101BA00018BCBDE8E08F00002DE9F0470F460500A6
:101BB00058D0404E306800F00700B84209D2306873
:101BC00020F0070038433060306800F00700B8426A
:101BD00048D12878384CC0072CD06868032811D029
:101BE000022812D0216898B1490500293ADAA16883
:101BF00021F003010143A160FFF726FD804641F279
:101C0000883910E021688901EFE721688903ECE752
:101C10008907EAE7FFF718FDA0EB0801494502D95B
:101C20000320BDE8F087A068696800F00C00B0EB05
:101C3000810FEFD12878800705D5A068A96820F02A
:101C4000F0000843A060306800F00700B8420BD9EC
:101C5000306820F0070038433060306800F007003B
:101C6000B84201D00120DCE72878400705D5A068FC
:101C7000E96820F4E0600843A0602878000706D5F2
:101C8000A068296920F4605040EAC100A06000F01B
:101C90003FF8A168094AC1F30311515C01F01F012B
:101CA000C8400749086007480068BDE8F047FFF7EB
:101CB000EFBC00000020024000100240E447000892
:101CC000340000202C00002005480649006889687F
:101CD000054AC1F30221515C01F01F01C840704761
:101CE000340000200010024024480008054806493E
:101CF00000688968054AC1F3C221515C01F01F01E7
:101D0000C8407047340000200010024024480008FA
:101D100070B52549002318468A68CC6812F00C0279
:101D200004F00306214C4FEA640509D00C2A05D0C3
:101D3000042A32D0082A00D1284670BD012E10D1C5
:101D40000B681B0704D4D1F89430C3F3032302E0DB
:101D50000B68C3F30313164E56F82330DAB10C2A7E
:101D6000EBD1C86800F00300022818D0032818D06F
:101D70001846CA68CB68C2F30212C3F30623434372
:101D8000521CB3FBF2F2C868C0F34160401C400033
:101D9000B2FBF0F070BD184670BD204670BD204605
:101DA000E7E72846E5E70000001002400024F400C1
:101DB000F44700082DE9F84304006FD0FE4DA868F1
:101DC00000F00C06E86800F003072078C00664D530
:101DD00076B10C2E01D1012F0AD0A0690028286805
:101DE0007AD040F001002860FFF72EFC80465DE0CD
:101DF0002868800702D5A0690028DED0216A2868FB
:101E0000000703D5286800F0F00004E0D5F894003E
:101E1000F02202EA1010814216D9084601F0B6FB02
:101E200000283BD1286840F0080028602868216A13
:101E300020F0F000084328606868E16920F47F40E2
:101E400040EA0120686016E0286840F00800286039
:101E50002868216A20F0F000084328606868E1697A
:101E600020F47F4040EA0120686026B9206A01F032
:101E70008DFB0028D5D1FFF74BFFA968CF4AC1F3EE
:101E80000311515C01F01F01C840CD490860CD48E5
:101E90000068FFF7FDFB00287ED12EE0CAE000BFFE
:101EA000FFF7D2FBA0EB0800022876D8286880074D
:101EB000F6D5286840F0080028602868216A20F0DC
:101EC000F000084328606868E16920F47F4040EA38
:101ED0000120686011E0FFE720F001002860FFF7B3
:101EE000B3FB804606E000BFFFF7AEFBA0EB0800A7
:101EF0000228DAD828688007F6D42078C00740D0B6
:101F0000082E18D00C2E01D1032F14D06068B0F524
:101F1000803F17D0B0F5A02F286817D020F480306C
:101F20002860286820F4802028606068E0B1FFF70E
:101F30008BFB804614E02868800322D56068002867
:101F400078D01EE0286840F48030EDE740F480202F
:101F50002860F7E7FFF778FBA0EB08006428A4D817
:101F600028688003F6D50CE0FFF76EFB804605E09D
:101F7000FFF76AFBA0EB0800642896D82868800366
:101F8000F6D4207880073BD5042E11D00C2E01D139
:101F9000022F0DD0E06801E092E1F1E0002828680E
:101FA0001ED040F480702860FFF74EFB07460CE01F
:101FB000286840050CD5E0680028C1D008E000BFC3
:101FC000FFF742FBC01B022893D828684005F7D5CD
:101FD0006868217C20F0F85040EA016068600FE0FA
:101FE00020F480702860FFF72FFB074605E000BF54
:101FF000FFF72AFBC01B0228B1D828684005F7D498
:102000002078000729D560690028D5F8940012D0FF
:1020100040F00100C5F89400FFF716FB074604E006
:10202000FFF712FBC01B022899D8D5F8940080074F
:10203000F6D512E000E120F00100C5F89400FFF7AA
:1020400003FB074605E000BFFFF7FEFAC01B0228AE
:1020500085D8D5F894008007F6D42078400766D557
:10206000A86D0027C00008D4A86D40F08050A86576
:10207000A86D012700F08050009053480168C90501
:1020800012D40168814641F480710160FFF7DCFAE7
:10209000804605E0FFF7D8FAA0EB080002286FD8C9
:1020A000D9F80000C005F5D5A068012816D005288C
:1020B000D5F8900017D020F00100C5F89000D5F8B1
:1020C000900020F0040000BFC5F89000A06841F225
:1020D0008839C0B1FFF7B8FA80460FE0D5F8900014
:1020E00040F00100F0E740F00400C5F89000F5E78B
:1020F000FFF7AAFAA0EB0801494541D8D5F89000AE
:102100008007F5D50EE0FFF79FFA804606E000BF96
:10211000FFF79AFAA0EB0801494531D8D5F89000AD
:102120008007F5D41FB1A86D20F08050A865A06A83
:1021300038B302280AD00C2E7ED0286820F0807098
:102140002860286810F0205F77D0AAE0E868E26A8B
:1021500000F0030191422BD1216B00F070020901C4
:102160001039914224D1626B00F4FE41B1EB022F91
:102170001ED1A26B00F40031072A03D0012202E035
:102180009DE089E00022914212D1A18F00F4C002AB
:1021900049084905A1F50011914209D194F8401070
:1021A00000F0C06049084906A1F1007181425CD08D
:1021B0000C2E41D0286809E000100240E4470008D6
:1021C000340000202C0000200070004040017ED42C
:1021D0002868C0007BD4286820F080702860FFF752
:1021E00033FA064605E000BFFFF72EFA801B0228EF
:1021F00065D828688001F7D4D4E90B016FF00F028D
:1022000002EB01110843A18F5204490802EB41512E
:10221000626B41EA0221084394F840104FF07E427D
:10222000490802EB41610843A16B090940EA4140BA
:10223000E968284A114001E049E02EE00843E860DF
:10224000286840F080702860E86840F08070E8609E
:10225000FFF7FAF9044604E0FFF7F6F9001B02283D
:102260002DD828688001F7D52FE0286880012CD46C
:10227000286840F080702860E86840F08070E8606E
:10228000FFF7E2F9044604E0FFF7DEF9001B02283D
:1022900015D828688001F7D517E0E86820F003001A
:1022A000E860E8680C490840E860FFF7CDF90446AB
:1022B00008E000BFFFF7C8F9001B022802D903207D
:1022C000BDE8F88328688001F4D40020F8E70120F5
:1022D000F6E700008C809DF9FFFFEEFE10B5401E72
:1022E000B0F1807F01D3012010BD4FF0E024606188
:1022F0000F21601701F0BDFE0020A06107202061C2
:10230000002010BD7047704770470000F0B590F88E
:102310003C20012A39D0012480F83C40022280F878
:102320003D20026853689568194E1A4FB24201D099
:10233000BA4204D123F4700C4B6843EA0C0323F037
:10234000700C0B6843EA0C0353600268B24210D071
:10235000B2F1804F0DD0104B9A420AD00F4B9A42E7
:1023600007D00F4B9A4204D0BA4202D00D4B9A428A
:1023700004D1896825F080031943916080F83D40BD
:10238000002180F83C100846F0BD0220F0BD00009E
:10239000002C0140003401400004004000080040CF
:1023A000000C00400040014010B5040003D094F838
:1023B0003D0010B107E0012010BD002084F83C0072
:1023C000204600F023F8022084F83D00211D2068FB
:1023D00001F08AF9012084F8480084F83E0084F86E
:1023E0003F0084F8400084F8410084F8420084F8FB
:1023F000430084F8440084F8450084F8460084F8DB
:10240000470084F83D00002010BD000008B50168B9
:102410001048B1F1804F14D00F4A914219D1816D0B
:1024200041F002018165806D002200F00200009001
:1024300011461D20FFF772F9BDE808401D20FFF787
:102440005FB9816D41F001018165806D00F001008F
:10245000009008BD001002400004004090F83D10BC
:10246000012901D001207047022180F83D10016848
:10247000CA6842F00102CA6000681149884211D05E
:10248000B0F1804F0ED00F4988420BD00E498842E0
:1024900008D00E49884205D00D49884202D00D4926
:1024A000884207D181680C4A1140062906D0B1F54F
:1024B000803F03D0016841F00101016000207047B6
:1024C000002C01400004004000080040000C0040C7
:1024D00000340140004001400700010070B504468F
:1024E00090F83C00012817D0012584F83C500220C8
:1024F00084F83D00226890682E4B184020F47F40FD
:1025000090600868502830D00DDC20284DD005DCC4
:1025100098B310283BD148E0022070BD302844D049
:10252000402834D139E0602828D0702806D0B0F592
:10253000805F2CD0B0F5005F29D10AE0CB68D1E9EB
:102540000121206801F03DF92068816841F07701A0
:1025500009E0CB68D1E90121206801F032F9206857
:10256000816841F48041816011E0CA68496820684F
:1025700001F0C2FA5021206807E016E0CA684968F5
:10258000206801F0CAFA6021206801F024F984F87B
:102590003D50002084F83C0070BDCA68496820683E
:1025A00001F0AAFA40212068EFE7226801461046B0
:1025B000EBE7000088FFFEFF2DE9F0410D46040027
:1025C00003D094F83D0018B108E00120BDE8F08187
:1025D000002084F83C00204600F042F8022084F8F5
:1025E0003D00206881681D4A11408160211D2068DE
:1025F00001F07AF8226890689169166A2B68AF69D1
:10260000034340F20330814341EA0721A868EF69A0
:1026100008434FF6FC418843E96840EA072001433C
:1026200028692F6A000140EA0730084369686D692C
:1026300026F0AA0646EA05152943936022689061B0
:1026400054F8480B0162012004F81F096075A07559
:10265000E076207720750020B8E70000F8BFFEFF85
:1026600010B586B0044614216846FDF7C9FE11492D
:10267000206888421CD11048816D41F004018165B9
:10268000816D01F004010591C16C41F00201C1644A
:10269000C06C002100F002000590C02000900220D4
:1026A000CDE90101CDE9031069460448FEF78CFE2F
:1026B00006B010BD000800400010024000040048B1
:1026C00070B590F83E60044690F83F5090F8443062
:1026D00090F84520022021B104290ED0012E1BD1F3
:1026E00014E0012E18D1012B16D184F83E0084F895
:1026F000440001220021206820E0012D0CD1012A94
:102700000AD184F83F0084F8450014E0012D03D17C
:10271000012B01D1012A01D0012070BD84F83E00B7
:1027200084F83F0084F8440084F845000122002129
:10273000206801F039F801220421206801F034F802
:102740002068016841F001010160002070BD704700
:1027500070B50446006801694FF00005C943890758
:1027600015D4C168C943890711D4E91E016101204C
:102770002077206880698007204602D0FFF7E7FFB6
:1027800004E000F0E1F8204600F0A0F92577206889
:102790000169C943490717D4C168C943490713D41C
:1027A0006FF004010161022020772068806910F435
:1027B000407F204602D0FFF7CAFF04E000F0C4F8D3
:1027C000204600F083F9257720680169C94309078D
:1027D00016D4C168C943090712D46FF0080101611A
:1027E000042020772068C0698007204602D0FFF7C8
:1027F000AEFF04E000F0A8F8204600F067F9257766
:1028000020680169C943C90617D4C168C943C9060C
:1028100013D46FF010010161082020772068C0698F
:1028200010F4407F204602D0FFF791FF04E000F053
:102830008BF8204600F04AF9257720680169C943E2
:10284000C90708D1C168C943C90704D1891E0161FC
:10285000204600F0BFF920680169C943090609D480
:10286000C168C943090605D46FF0800101612046A3
:10287000FFF749FD20680169C943C90509D4C1684A
:10288000C943090605D46FF4807101612046FFF742
:1028900039FD20680169C943490609D4C168C943A3
:1028A000490605D46FF040010161204600F0DEF9D1
:1028B00020680169C94389060BD4C168C9438906E8
:1028C00007D46FF0200101612046BDE87040FFF79A
:1028D0001BBD70BD70B586B0044614216846FDF777
:1028E0008FFD2068B0F1804F27D11548C16C41F0B1
:1028F0000101C164C16C01F001010591C16C41F09D
:102900000201C164C06C022500240095CDE9015488
:1029100000F002000126CDE90460694603944FF0FF
:102920009040FEF751FD68020090CDE90154CDE9D9
:10293000034669460348FEF747FD06B070BD000038
:102940000010024000040048704770B5044690F83B
:102950003C000D4601280BD0012084F83C000C2AD5
:1029600045D007DC5AB1042A1BD0082A78D12CE0C4
:10297000022070BD102A4ED0142A71D15DE020686B
:1029800000F032FF2068816941F008018161206810
:10299000816921F004018161206881692A691143FC
:1029A00011E0206800F06EFF2068816941F4006149
:1029B00081612068816921F4806181612068816979
:1029C0002A6941EA022181614AE0206800F0A2FF01
:1029D0002068C16941F00801C1612068C16921F026
:1029E0000401C1612068C1692A69114311E02068AE
:1029F00000F0D8FF2068C16941F40061C16120681E
:102A0000C16921F48061C1612068C1692A6941EA14
:102A10000221C16124E0206800F0FEFF2068416DC2
:102A200041F0080141652068416D21F004014165D4
:102A30002068416D2A69114311E0206801F024F8F3
:102A40002068416D41F4006141652068416D21F4C9
:102A5000806141652068416D2A6941EA0221416532
:102A6000002084F83C0070BD10B5040003D094F839
:102A70003D0010B107E0012010BD002084F83C00AB
:102A8000204600F022F8022084F83D00211D206835
:102A900000F02AFE012084F8480084F83E0084F803
:102AA0003F0084F8400084F8410084F8420084F834
:102AB000430084F8440084F8450084F8460084F814
:102AC000470084F83D00002010BD704770470000AB
:102AD00030B50446022269B1042912D0082917D062
:102AE0000C291CD0102921D094F84300012824D0AF
:102AF000012030BD94F83E000128F9D184F83E2031
:102B00001DE094F83F000128F2D184F83F2016E040
:102B100094F840000128EBD184F840200FE094F8AD
:102B200041000128E4D184F8412008E094F84200F3
:102B30000128DDD184F8422001E084F843200122FD
:102B4000206800F031FE1A4A20681A4B1A49904258
:102B500009D0984207D0884205D0184DA84202D02B
:102B6000174DA84203D1456C45F4004545642068E3
:102B700090420FD0B0F1804F0CD0124A904209D051
:102B8000114A904206D0114A904203D0984201D097
:102B9000884207D181680E4A1140062906D0B1F556
:102BA000803F03D0016841F001010160002030BD89
:102BB000002C01400034014000400140004401402D
:102BC000004801400004004000080040000C0040A4
:102BD0000700010070B51D490068096888422AD1C4
:102BE000FEF7AAFBC821484301F068FC9FED181BC3
:102BF00053EC112B01F07AFC9FED171B53EC112BBA
:102C000001F004FB01F0D0FA00EE100A144880ED48
:102C1000000AD0ED010A30EEC00A00F06FFB04009C
:102C20001048114D08D401220821FEF708FD29683B
:102C3000C4F57A70886370BD00220821FEF7FFFC9E
:102C4000286804F57A74846370BD00008400002055
:102C5000000000000000D03F0000000000005940CC
:102C60001800002000080048380000207047704716
:102C7000704700002DE9F04102680446D0691168F0
:102C8000936840F60F0528424FF0000505D18606EF
:102C90007BD58E0679D5216E88E04D4F03F0010675
:102CA0000F40374371D0C70707D0CF0505D501279F
:102CB0001762E26F42F00102E267820708D5DA0785
:102CC00006D0276802223A62E26F42F00402E2670D
:102CD000420708D5DA0706D0236804221A62E26F99
:102CE00042F00202E26702070AD501F020023243F5
:102CF00006D0236808221A62E26F42F00802E267F7
:102D0000020509D54A0107D523684FF400621A620B
:102D1000E26F42F02002E267E26F002A2ED08006C6
:102D200005D5880603D5216E09B120468847E06F96
:102D300021688968490602D410F0280F20D0204667
:102D400000F097FF20688168490614D5816821F05A
:102D500040018160E06E70B11E498163E06EFEF754
:102D6000F9FA00280AD0E06E816B00E02046BDE849
:102D7000F041084709E02046FFF77AFFBDE8F081FF
:102D80002046FFF775FFE567F8E7C60209D55B0245
:102D900007D54FF4801010622046BDE8F041FFF7E0
:102DA00066BF030605D50B0603D5616E0029DDD18C
:102DB000E4E74006E2D54806E0D51168204621F058
:102DC0004001116020216167656600F056F9D5E782
:102DD000200100045F3C000810B5040002D0606FC1
:102DE00010B107E0012010BD002084F870002046DB
:102DF00000F026F8242060672068016821F00101B6
:102E00000160204600F09EFF0128ECD0606A10B1FE
:102E1000204600F094FE2068416821F49041416012
:102E20002068816821F02A0181602068016841F0F2
:102E3000010101602046BDE8104000F0E4BE000042
:102E400010B586B0044614216846FDF7D9FA174933
:102E50002068884227D11648816D41F40031816590
:102E6000816D01F400310591C16C41F00101C16433
:102E7000C06C694600F0010005900C200090022013
:102E800001900020029003200390072004904FF04F
:102E90009040FEF799FA002211462620FEF73EFCEC
:102EA0002620FEF72DFC06B010BD000000440040B7
:102EB0000010024030B5836F202B4BD1B1B1AAB1C5
:102EC00090F87030012B45D0012380F870304165B7
:102ED000A0F85820A0F85A20002101661D0382683E
:102EE000FF23AA4207D1026912B125E0012030BDBB
:102EF00040F2FF1226E07F24E2B1B2F1805F1ED0E3
:102F0000A0F85C10C167222282670268936843F0D0
:102F1000010393608268AA4201D10269C2B10E4ADC
:102F2000026680F870100068016841F490710160D9
:102F3000002030BD026942B9A0F85C30E2E70269C6
:102F40001AB13F22A0F85C20DCE7A0F85C40D9E78A
:102F5000024AE5E7022030BDEB3C0008913C000846
:102F600000681549884222D11448417802793039E5
:102F700001EB4103C3EBC11102EBC1018278642371
:102F800012FB03F2C378007803EB830302EB4302E6
:102F90001144A1F5A051D0392D2800D1494200EEAD
:102FA000101A0648B8EEC00A083880ED010A05225A
:102FB00002490348FFF77EBF004400402000002084
:102FC0001C0100202DE9F8430446406F1F461646B9
:102FD0000D4620284FD1CDB1C6B194F8700001281C
:102FE00049D0012084F870004FF00008C4F87C80BC
:102FF00021206067FEF728FBA4F850608146A4F802
:103000005260A068B0F5805F03D004E00120BDE805
:10301000F883206928B12E465FF0000584F870809F
:1030200010E00026FAE78021204600F0B1FFB8B991
:10303000C6B116F8010B21680885B4F85200401E8D
:10304000A4F85200B4F852004B464FF0000200972B
:103050000028E8D14FF04001204600F099FF30B140
:103060000320D4E735F8020BC0F30800E3E7202083
:1030700060670020CBE70220C9E77047FEE7000049
:10308000F0B587B014216846FDF7BAF92648C16C3F
:1030900041F00401C164C16C01F004010591C16CEF
:1030A00041F08001C164C16C01F080010591C16CE7
:1030B00041F00101C164C16C01F001010591C16CD5
:1030C00041F00201C164C06C184E00F0020005908E
:1030D00000220C213046FEF7B2FA4FF09047002252
:1030E00020213846FEF7ABFA4FF40050009010480C
:1030F0000024CDE9010469463046FEF765F90C204D
:1031000000900125CDE90154694630460394FEF74D
:103110005BF920200090CDE90154694638460394BC
:10312000FEF752F907B0F0BD001002400008004859
:103130000000211030B58FB0002407940894099442
:103140000A940B940C941C2168460D94FDF758F9D1
:1031500023484FF0804101600721C0E9011440F28B
:10316000E731C0E9031480218161FFF71DF908B13F
:10317000FEF7DFF84FF48050079007A91848FFF7D3
:10318000ADF908B1FEF7D5F81548FFF76DFC08B1A9
:10319000FEF7CFF80B940BA911480D94FFF7B6F882
:1031A00008B1FEF7C6F8602000906325CDE9015410
:1031B000042269460A480494FFF7C7FB08B1FEF7EA
:1031C000B8F80822694606480195FFF7BEFB08B12A
:1031D000FEF7AFF80248FFF77DFB0FB030BD0000EF
:1031E0003800002010B588B00024184800940194DD
:1031F000029403940494059413490694016040F2E8
:103200008F11C0E9011440F2E731C0E903148021B5
:103210008161FFF7C9F808B1FEF78BF84FF48050D1
:10322000009069460948FFF759F908B1FEF781F89F
:10323000049404A905480694FFF768F8002801D013
:10324000FEF777F808B010BD0004004084000020AD
:1032500010B58CB024216846FDF7D2F8002416483A
:1032600009940A9413490B94C0E900144FF6FF71B6
:10327000C0E90241046184610320CDE9000401201A
:10328000CDE902040494CDE90540079469460A4853
:103290000894FFF791F908B1FEF74BF8099409A9D2
:1032A00005480B94FFF732F8002801D0FEF741F8EB
:1032B0000CB010BD00080040D00000200D4810B533
:1032C0000B4901604FF4E1314160002181600C2223
:1032D000C160C0E904128161C16101624162FFF70E
:1032E0007BFD002803D0BDE81040FEF722B810BDDA
:1032F000004400401C010020FEE7FEE714484FF4A4
:103300007A72D0ED020A90ED001A70EE600A60EE5B
:10331000810A90ED011A41EE000A90ED031A70EE59
:10332000810AC0ED030A90ED041AB8EEC11A71EEDD
:10333000200AFDEEE00A10EE901A016180ED020A0B
:10334000914202DC5242914200DA02610069704708
:1033500004000020704700002DE9F041444C054670
:103360008846E0680026810728680DD0E16801F0F2
:103370000301814216D1A8B1E0686968C0F3021068
:10338000401C88420ED120E0012804D0022805D03C
:10339000032807D108E02168890701E02168490571
:1033A000002907DB01265FE02168890302D4216838
:1033B0004903F5E7E1686A686FF00F0321F07301D4
:1033C00003EB021211430143E160206820F08060AA
:1033D0002060FEF739F9074605E000BFFEF734F933
:1033E000C01B022837D820680001F7D4B8F1000FBD
:1033F00018D0B8F1010F1ED0287D4FF07E41400853
:1034000001EB4060A96840EA01202169194A114096
:1034100008432061206840F080602060FEF714F9C6
:1034200007461AE0A868E9680002090940EA414035
:103430002169114AEBE7288A1049400801EB405006
:10344000A96840EA012021690D4AE0E7FEF7FCF88F
:10345000C01B022801D9032606E020680001F5D52B
:103460002069A969084320613046BDE8F081000069
:1034700000100240FF80FFF9FF80FDFF0000E0FF29
:10348000FF809FFF2DE9F0413D4C06468846E068ED
:103490000025810730680DD0E16801F00301814209
:1034A00016D1A8B1E0687168C0F30210401C8842D0
:1034B0000ED120E0012804D0022805D0032807D12E
:1034C00008E02168890701E021684905002907DB38
:1034D000012551E02168890302D421684903F5E7F9
:1034E000E16872686FF00F0321F0730103EB0212C1
:1034F00011430143E160206820F080502060FEF716
:10350000A3F8074605E000BFFEF79EF8C01B02289F
:1035100029D820688000F7D4B8F1000F15D0307C8E
:103520004FF07E41400801EB4060B16840EA012065
:103530006169144A114008436061206840F080507E
:103540002060FEF781F807460FE0B068F1680002DE
:10355000090940EA414061690B4AEBE7FEF774F85C
:10356000C01B022801D9032506E020688000F5D59C
:1035700060697169084360612846BDE8F081000018
:1035800000100240FF80FFF9FF80FDFFF8B51C4DE1
:1035900006460024A86DC00002D5FEF725F90DE00F
:1035A000A86D40F08050A865A86D00F08050009094
:1035B000FEF71AF9A96D21F08051A965B0F5007FD9
:1035C00004D0802E07D94FF003040AE0802E08D9DA
:1035D000A02E01D804E001D1022402E0702E00D117
:1035E00001240848016821F00701214301600068B7
:1035F00000F00700A04201D00120F8BD0020F8BD76
:1036000000100240002002407047FEF723B830B59A
:10361000B9B0442122A8FCF7F3FE142133A8FCF72B
:10362000EFFE88216846FCF7EBFE0224E0012590BE
:103630001020229426902C940120CDE92D400A20C0
:103640002F900720CDE9300422A83294FEF7B2FB78
:1036500008B172B6FEE70F20002533900320CDE9B4
:1036600034053695042133A83795FEF79DFA08B145
:1036700072B6FEE70F9568460094FEF7BDF808B1F4
:1036800072B6FEE74FF40070FEF77AF8002801D01A
:1036900072B6FEE739B030BD0D48016841F47001E3
:1036A00001600C48016841F0010101600021816066
:1036B0000268094B1A4002608214C260026822F458
:1036C0008022026081610249C0038039086070472E
:1036D00088ED00E000100240FFFFF6EA0148FFF726
:1036E00037B80000840000202DE9F0470268264B1F
:1036F000264D274E274F284C4FF0804A984209D03C
:10370000504507D0A84205D0B04203D0B84201D0FE
:10371000A04204D122F0700C4A6842EA0C02DFF8A1
:103720007CC0DFF87C80DFF87C9098420FD0504559
:103730000DD0A8420BD0B04209D0B84207D0A04269
:1037400005D0604503D0404501D0484503D122F45F
:103750004075CA682A434D6922F080022A430260FC
:103760008A68C2620A688262984207D0A04205D085
:10377000604503D0404501D0484501D10969016346
:1037800001214161BDE8F087002C014000040040A8
:1037900000080040000C004000340140004001409F
:1037A000004401400048014010B501F01F03012111
:1037B000046A99408C430462016A9A401143016291
:1037C00010BD10B5846842EA032224F47F440A4302
:1037D0002243826010BD826822F070020A4342F0E8
:1037E00007018160704700002DE9F043026A22F072
:1037F00001020262056A436882691C4C25F00205D9
:1038000022400C6822F0030214438A68194E2A43AE
:10381000174D194FDFF864C0DFF86490A84207D055
:10382000B04205D0B84203D0604501D0484506D12A
:1038300022F00808CA6842EA080222F00402A842FC
:1038400007D0B04205D0B84203D0604501D048450A
:1038500005D14D6923F440731D438B692B434360AD
:103860008461496841630262BDE8F0838FFFFEFF17
:10387000002C014000340140004001400044014060
:1038800000480140F0B5026A22F010020262056AA7
:1038900042688369194C1B4E23400C6823F4407323
:1038A00043EA042425F020038D6843EA0513144DF0
:1038B000A84201D0B04206D1CF6823F0800343EA8A
:1038C000071323F04003A8420AD0B04208D00E4D9F
:1038D000A84205D00D4DA84202D00D4DA84207D1F7
:1038E0004D6922F4406242EA85028D6942EA85020E
:1038F00042608461496881630362F0BDFF8FFFFE0F
:10390000002C0140003401400040014000440140CF
:1039100000480140F0B5026A22F480720262056A32
:103920004368C269194C1B4E22400C6822F0030206
:10393000144325F400728D6842EA0522144DA84212
:1039400001D0B04206D1CF6822F4006242EA0722D9
:1039500022F48062A8420AD0B04208D00E4DA8429C
:1039600005D00E4DA84202D00D4DA84207D14D6999
:1039700023F4405343EA05138D6943EA051343607A
:10398000C4614968C1630262F0BD00008FFFFEFFA1
:10399000002C01400034014000400140004401403F
:1039A0000048014030B5026A22F480520262046A83
:1039B0004268C369124D24F400542B400D6823F46F
:1039C000407343EA05238D6844EA05340D4DA8424F
:1039D0000BD00D4DA84208D00C4DA84205D00C4D7F
:1039E000A84202D00B4DA84204D14D6922F4804276
:1039F00042EA85124260C36149680164046230BDD5
:103A0000FF8FFFFE002C01400034014000400140C8
:103A1000004401400048014030B5026A22F480327F
:103A20000262046A4268436D114D2B400D681D43CC
:103A300024F400330C8943EA04430E4CA0420BD01B
:103A40000D4CA04208D00D4CA04205D00C4CA04219
:103A500002D00C4CA04204D14C6922F4803242EADC
:103A600004224260456549688165036230BD0000FB
:103A70008FFFFEFF002C0140003401400040014058
:103A8000004401400048014030B5026A22F480122F
:103A90000262046A4268436D114D24F400142B4005
:103AA0000D6843EA05230D8944EA05540D4DA842EB
:103AB0000BD00D4DA84208D00C4DA84205D00C4D9E
:103AC000A84202D00B4DA84204D14D6922F48022B5
:103AD00042EA8522426043654968C165046230BD9F
:103AE000FF8FFFFE002C01400034014000400140E8
:103AF000004401400048014010B5036A046A24F004
:103B000001040462846924F0F00444EA021423F0FE
:103B10000A020A438461026210BD10B5036A23F0F1
:103B2000100303628369046A23F4704343EA023298
:103B300024F0A00343EA01118261016210BD90F8F4
:103B40002410C90706D001684A68836A22F400324B
:103B50001A434A6090F82410890706D501684A681C
:103B6000C36A22F480321A434A6090F8241049074D
:103B700006D501684A68036B22F480221A434A6022
:103B800090F82410090706D501684A68436B22F4AF
:103B900000421A434A6090F82410C90606D501680D
:103BA0008A68836B22F480521A438A6090F824104A
:103BB000890606D501688A68C36B22F400521A434D
:103BC0008A6090F82410490611D501684A68036C90
:103BD00022F480121A434A60016CB1F5801F06D1AD
:103BE00001684A68436C22F4C0021A434A6090F8A4
:103BF0002410090606D501684A68806C22F4002268
:103C000002434A607047F8B500260446C667FDF7D0
:103C10001BFD0546206800686FF07E47000708D549
:103C20002B4600224FF400112046009700F0B0F917
:103C300060B92068006840070AD52B4600224FF47F
:103C400080012046009700F0A3F908B10320F8BDD9
:103C500020206067A06784F870600020F8BD10B570
:103C6000806A0021A0F85A10A0F85210FFF700F85F
:103C700010BD01680A6822F490720A6001688A68BF
:103C800022F001028A6020218167002101667047CD
:103C900010B5B0F85C20836F0168222B04D0088B2C
:103CA00040F00800088310BD898C436D11401980D5
:103CB000416D891C4165B0F85A10491EA0F85A1090
:103CC000B0F85A100029EED101680A6822F4907207
:103CD0000A6001688A6822F001028A6020218167F7
:103CE00000210166FFF73CF910BD10B5B0F85C206B
:103CF000836F0168222B04D0088B40F008000883F2
:103D000010BD898C1140426D1170416D491C416597
:103D1000B0F85A10491EA0F85A10B0F85A100029ED
:103D2000EED101680A6822F490720A6001688A681C
:103D300022F001028A602021816700210166FFF7DD
:103D40000FF910BD2DE9F041044601688068226931
:103D5000E3691043626900251A431043824F0A68E1
:103D6000824B1A4002430A6020684168E26821F4ED
:103D70004051114341602168A069B94201D0226AD3
:103D800010438A6822F4306202438A6078492268CC
:103D900078488A420DD1D0F8880010F0030006D090
:103DA000012866D0022854D0032851D163E00120B5
:103DB0004FE071498A420BD1D0F8880010F00C0016
:103DC00047D0042845D0082851D00C2840D152E0D3
:103DD0006A498A420BD1D0F8880010F0300038D000
:103DE000102846D0202842D0302831D143E0644901
:103DF0008A420BD1D0F8880010F0C00029D04028AA
:103E000037D0802833D0C02822D134E05D498A429F
:103E10000ED1D0F8880010F440701AD0B0F5807F31
:103E200027D0B0F5007F22D0B0F5407F10D122E03E
:103E3000BA420DD1D0F8880010F4406009D0B0F536
:103E4000806F16D0B0F5006F11D0B0F5406F12D072
:103E500010204D4B00264FF40041BA422ED160B1E4
:103E6000022813D004280BD0082874D10DE00220BA
:103E7000EFE70420EDE70820EBE7FDF725FF01E081
:103E8000FDF746FF030001D169E00B46626802EBD3
:103E9000420098425FD8B3EB023F5CD8190E18027B
:103EA00073084FEA3207C01959410023FCF7E8F9BB
:103EB000364AA0F5407191424FD94CE0E2694FF685
:103EC000EF778A4228D1092845D2DFE800F00508BB
:103ED00011440D4444441000FDF7F6FE01E0FDF7E7
:103EE00005FF030004D13AE0FDF712FFF9E70B46A6
:103EF0006068590001EB5001B1FBF0F080B2A0F115
:103F00001001B94227D84FF6F0710140C0F34200CA
:103F100001432068C16022E009281CD2DFE800F0DC
:103F20000508111B0D1B1B1B1000FDF7CDFE01E04A
:103F3000FDF7DCFE030004D111E0FDF7E9FEF9E72F
:103F40000B46606803EB5001B1FBF0F080B2A0F1CA
:103F50001001B94201D9012501E02168C860266637
:103F600028466666BDE8F08100800040F369FFEFF7
:103F7000003801400010024000440040004800406A
:103F8000004C0040005000400024F400FFFC0F00F3
:103F90002DE9F0479A4617460E4604464FF00009B1
:103FA0004FF02008089D39E0681C37D0FDF74CFB26
:103FB000A0EB0A00A84222D80DB320680168490787
:103FC0002CD5C069C043000528D421684FF4006097
:103FD00008622068016821F4D0710160206881685E
:103FE00021F001018160C4F87480C4F87880C4F8BD
:103FF0007C8000BF84F870900320BDE8F0872068C3
:10400000016821F4D07101602068816821F001010C
:104010008160C4F87480C4F87880EBE72068C069D8
:1040200036EA000004D00020B842BDD00020E4E70A
:104030000120F9E70148FEF71DBE00001C01002029
:10404000FEE703B401984100009850EAC12018BF70
:1040500004204A0D18BF40F0010040F2FF72B2EB9D
:10406000515F08BF40F00200012808BF052002B0E0
:1040700070470907090E002804DB00F1E02080F8F2
:104080000014704700F00F0000F1E02080F8141DCC
:104090007047000090B0FDF7E5FAFFF7B8FAFEF7B9
:1040A000EFFFFFF747F8FFF79DF8FFF707F9FFF776
:1040B000CFF83C212148FEF703FB2148FEF7CEF95B
:1040C000012204211F48FDF7BAFA04211E48FEF719
:1040D000FFFC05221D491E48FEF7ECFE1B4C4FF469
:1040E0007A75083C4FF09046606800F0FDFA41ECAC
:1040F000100B18A153EC102B6846FCF739F92B462E
:104100001E2269461248FEF75DFF206800F0ECFAB7
:1041100041EC100B14A153EC102B08A8FCF728F964
:104120002B461E2208A90A48FEF74CFF20213046E4
:10413000FDF77DFA6420FDF735F9D5E7D0000020C2
:1041400084000020000800483800002020000020E3
:104150001C0100205461726765745F73706565644B
:104160003A25660D0A00000043757272656E745F31
:1041700073706565643A25660D0A000010B5002964
:104180000AD00878002807D005487844FCF7C0FC1E
:10419000002801D0002010BD0248784410BD000066
:1041A000560700004E07000021F00042A2F16052C5
:1041B000B2F5801F01F0004328BFD2F17F6C0BD90C
:1041C0005FEA001C43EAC20242EB507018BF70471E
:1041D00028BF20F001007047B2F5801FBCBF184611
:1041E00070474FEA410C1CF5001F02D2084600F050
:1041F000F1BA70B500F024FA00000089FFF7F6BFAD
:104200004FF00040A0F58000704700002DE9C0414C
:1042100030B4DFF8A0C23CEA111418BF3CEA131412
:1042200000F0EC8081EA03051CEA111444EAD5741D
:1042300018BF1CEA131500F0C780A4EB05044FF06B
:10424000004545EAC12145EAC32341EA505143EA0A
:10425000525304F17F74994204F500344FEAC020B0
:104260004FEAC22208BF904200F09C804FEA1365DB
:104270000FF24016765D4FEA134506FB05F7C7F1CE
:10428000807706FB07F74FEAD737A7FB036876422C
:10429000C8F58038A7FB06CE38BFA8F1010807FB98
:1042A00008E64FF0000EA6FB028CE6FB03CEDCF125
:1042B000000CCEF1004E38BFAEF1010EA6FB0C583B
:1042C0004FF000074FF00005E6FB0E87A1FB08C684
:1042D000A0FB07CE16EB0E0645F10005E1FB0765D6
:1042E00015F1E04E7EBFA4F580345FEA46066D41CD
:1042F00016F1800745F100054FEA17274FEA0666D9
:1043000047EA0567A6F1DE46B6F1805F4FEA15255C
:104310001FD9384624F0010C05EBC471BCF1FE6FC7
:1043200001EB0C1102D8F0BCBDE8008124425CBF57
:1043300001F5801E9EEAC47F02D4F0BCBDE8008176
:10434000244238D4F0BCA1F1C041BDE8004100F0E6
:10435000C5B94FEAD22242EA43524FEAD323A7FB20
:1043600002864FEAD02040EA415007FB03661EEA6E
:104370000E0F4FEAD12105FB026658BFA6EB00568F
:10438000B6EB00564FEA520E4EEAC37E18EB0E0E05
:1043900056EB530EBDD518EB02085E417F1C55F15C
:1043A0000005B6E74FF480154FF000074FF0000608
:1043B0004FF00008ADE7F0BC4FF0000001F1C04144
:1043C00001F00041BDE8008111EA0C1F0CEA131551
:1043D00000D00CE013EA0C1F00F025804FF0000025
:1043E000F0BC81EA030101F00041BDE80081F0BCAE
:1043F000BDE8004181EA030100F070B9F0BCBDE8FE
:10440000004170B500F01CF9097EFC3E00F007B8D1
:1044100081EA03014FF0000001F00041704781EA9A
:10442000030100F05BB9F0BCBDE800414FF00000B3
:1044300021497047FFFDFBF9F7F5F4F2F0EEEDEBE3
:10444000E9E8E6E4E3E1E0DEDDDBDAD8D7D5D4D392
:10445000D1D0CFCDCCCBCAC8C7C6C5C4C2C1C0BFDE
:10446000BEBDBCBBBAB9B8B7B6B5B4B3B2B1B0AFE4
:10447000AEADACABAAA9A8A8A7A6A5A4A3A3A2A1C8
:10448000A09F9F9E9D9C9C9B9A9999989797969583
:1044900095949393929191908F8F8E8E8D8C8C8B1F
:1044A0008B8A8989888887878685858484838382A7
:1044B000828181800000FF070000F87F10F0004239
:1044C00048BF4042B0FA80F310FA03F10AD0C3F1BA
:1044D0001D0303F580634FEA415002EB035202EBE8
:1044E000D12170474FF0000070470000DFF848C14D
:1044F00070B51CEA111E1EBF1CEA13159EEA0C0FB4
:1045000095EA0C0F00F06F8081EA030423EA4C1354
:104510004EEAD47E21EA4C1141F4801143F4801319
:10452000AE44A1FB024CA0FB0365AEF17F7E3619C1
:1045300055EB0C05A1FB034C4CF10003A0FB021C46
:1045400016EB0C06654153F10003094218BF46F013
:10455000010613F4007F0BD14FEA03314FEA053017
:10456000340341EA155140EA16506FF003020AE0A5
:104570004FEAC3214FEAC520F40241EA555140EA0F
:1045800056506FF0020202EB2E4201EB025585EA13
:10459000CE710AD05FEA440C18BF24F0004450F1F9
:1045A000000041F1000120EAD47040F2FE7C624537
:1045B00000D270BDA84214BF4FF080444FF0404479
:1045C000002E08BF0024BEF1806FA8BFA1F1C0413A
:1045D000BDE8704080F282804FF0000001F1C041E0
:1045E00001F0004170479EEA0C0F0CEA131518BF4A
:1045F00095EA0C0F06D04FF0000081EA030E0EF092
:10460000004170BD00F01CF88900013E00F007B8C1
:1046100000F009B84FEA430C5FEA5C5C08D081EA1D
:10462000030100F05BB84FEA410C5FEA5C5CF6D135
:104630004FF00000014970470000FF070000F87FBD
:104640000EF1020E2EF0030E5EF8046B364205D416
:10465000012A43EB030515F5001F12D8012841EB91
:10466000010C1CF5001F0CD80ED14FEAD17C15F5BA
:10467000001F0CEB4C0C0CF1020C08BF4CEBD37C74
:1046800004E04FF0080C01E04FEAD37C0CEB4C0542
:1046900026FA05F606F00706B6F1040C06D20EEB74
:1046A000860CBDE870404CF0010C6047DFE80CF070
:1046B000090B02024FF000414FF00000A1F500216C
:1046C00070BD19461046012851EB010418BFD4F5FE
:1046D000001484BF002001F0004170BD0808A0F55F
:1046E00000114FEA3101704743004FEAD30C4FEA03
:1046F0003C0C43401FBF40070CF1605113F0FE4FCC
:1047000070471CF0006F03D100200CF0004170478F
:104710000CF0004343EA507010B540EACC0000F0C2
:104720000EF800BF000000924FEA0001FFF7D6BF6D
:104730004FF000414FF00000A1F5002170470EF14D
:10474000020E2EF0030E5EF8044B244204D44FEA0E
:104750004102B2F17F4F11D84FEA4003B3F17F4FCE
:104760000CD80ED14FEAD07CB2F17F4F0CEB4C0C41
:104770000CF1020C08BF4CEBD17C04E04FF0080CAC
:1047800001E04FEAD17C0CEB4C0324FA03F404F073
:104790000704B4F1040C06D20EEB840CBDE8104003
:1047A0004CF0010C6047DFE80CF0070802024FF004
:1047B0000040A0F5800010BD0846420018BFD2F1AD
:1047C000807288BF00F0004010BD4FF04070E1EEF5
:1047D000100A7047FF2141EAD050C0057047FBF72F
:1047E00012BF0000000000000000000001020304EE
:1047F00006070809A0860100400D0300801A060084
:1048000000350C0040420F0080841E0000093D006E
:1048100000127A000024F40000366E010048E8011E
:10482000006CDC02000000000102030402400000F2
:10483000000000A00000000005400000000000C8CB
:10484000000000000C4000000000409C0000000040
:10485000194000000020BCBE0000000034400000F1
:10486000BFC91B8E00000004B5400000504BCFD0E4
:104870006607E2CF010000006C4100003E8251AAB1
:10488000DFEEA73401000000D9420000DCB5A0E251
:104890003A301F97FFFFFFFFB4450000FD25A0C879
:1048A000E9A3C14FFFFFFFFFFF3F000000000080B2
:1048B00000000000FF3F000000000080000000003A
:1048C000FC4800080000002038000000C401000877
:1048D0003449000838000020C8070000E001000843
:1048E0001C00000043000000F8FFFFFF0C00000068
:1048F0000E0000000F0000002E000000000000006D
:10490000000080400AD7233C0000000000000000A7
:104910000000000000000000000000000000000097
:104920000000000001000000100000000000000076
:0449300000093D003D
:040000050800018965
:00000001FF
